{
  "contractName": "WhitelistedBreeder",
  "abi": [
    {
      "anonymous": false,
      "inputs": [
        {
          "indexed": true,
          "internalType": "address",
          "name": "account",
          "type": "address"
        }
      ],
      "name": "BreederAdded",
      "type": "event"
    },
    {
      "anonymous": false,
      "inputs": [
        {
          "indexed": true,
          "internalType": "address",
          "name": "account",
          "type": "address"
        }
      ],
      "name": "BreederRemoved",
      "type": "event"
    },
    {
      "anonymous": false,
      "inputs": [
        {
          "indexed": true,
          "internalType": "address",
          "name": "account",
          "type": "address"
        }
      ],
      "name": "WhitelistAdminAdded",
      "type": "event"
    },
    {
      "anonymous": false,
      "inputs": [
        {
          "indexed": true,
          "internalType": "address",
          "name": "account",
          "type": "address"
        }
      ],
      "name": "WhitelistAdminRemoved",
      "type": "event"
    },
    {
      "constant": false,
      "inputs": [
        {
          "internalType": "address",
          "name": "account",
          "type": "address"
        }
      ],
      "name": "addWhitelistAdmin",
      "outputs": [],
      "payable": false,
      "stateMutability": "nonpayable",
      "type": "function"
    },
    {
      "constant": true,
      "inputs": [
        {
          "internalType": "address",
          "name": "account",
          "type": "address"
        }
      ],
      "name": "isWhitelistAdmin",
      "outputs": [
        {
          "internalType": "bool",
          "name": "",
          "type": "bool"
        }
      ],
      "payable": false,
      "stateMutability": "view",
      "type": "function"
    },
    {
      "constant": false,
      "inputs": [],
      "name": "renounceWhitelistAdmin",
      "outputs": [],
      "payable": false,
      "stateMutability": "nonpayable",
      "type": "function"
    },
    {
      "constant": true,
      "inputs": [
        {
          "internalType": "address",
          "name": "account",
          "type": "address"
        }
      ],
      "name": "isBreeder",
      "outputs": [
        {
          "internalType": "bool",
          "name": "",
          "type": "bool"
        }
      ],
      "payable": false,
      "stateMutability": "view",
      "type": "function"
    },
    {
      "constant": false,
      "inputs": [
        {
          "internalType": "address",
          "name": "account",
          "type": "address"
        }
      ],
      "name": "addBreeder",
      "outputs": [],
      "payable": false,
      "stateMutability": "nonpayable",
      "type": "function"
    },
    {
      "constant": false,
      "inputs": [],
      "name": "removeBreeder",
      "outputs": [],
      "payable": false,
      "stateMutability": "nonpayable",
      "type": "function"
    },
    {
      "constant": false,
      "inputs": [
        {
          "internalType": "address",
          "name": "account",
          "type": "address"
        }
      ],
      "name": "removeBreeder",
      "outputs": [],
      "payable": false,
      "stateMutability": "nonpayable",
      "type": "function"
    }
  ],
  "bytecode": "0x60806040526100133361001860201b60201c565b610235565b61003081600061007660201b6105ee1790919060201c565b8073ffffffffffffffffffffffffffffffffffffffff167f22380c05984257a1cb900161c713dd71d39e74820f1aea43bd3f1bdd2096129960405160405180910390a250565b610086828261015760201b60201c565b156100f9576040517f08c379a000000000000000000000000000000000000000000000000000000000815260040180806020018281038252601f8152602001807f526f6c65733a206163636f756e7420616c72656164792068617320726f6c650081525060200191505060405180910390fd5b60018260000160008373ffffffffffffffffffffffffffffffffffffffff1673ffffffffffffffffffffffffffffffffffffffff16815260200190815260200160002060006101000a81548160ff0219169083151502179055505050565b60008073ffffffffffffffffffffffffffffffffffffffff168273ffffffffffffffffffffffffffffffffffffffff1614156101de576040517f08c379a0000000000000000000000000000000000000000000000000000000008152600401808060200182810382526022815260200180610a826022913960400191505060405180910390fd5b8260000160008373ffffffffffffffffffffffffffffffffffffffff1673ffffffffffffffffffffffffffffffffffffffff16815260200190815260200160002060009054906101000a900460ff16905092915050565b61083e806102446000396000f3fe608060405234801561001057600080fd5b506004361061007d5760003560e01c80634c5a628c1161005b5780634c5a628c146101145780637362d9c81461011e578063bb5f747b14610162578063c7b9cb0b146101be5761007d565b806307c4bdeb146100825780633b9e01c3146100c657806346456c66146100d0575b600080fd5b6100c46004803603602081101561009857600080fd5b81019080803573ffffffffffffffffffffffffffffffffffffffff16906020019092919050505061021a565b005b6100ce610284565b005b610112600480360360208110156100e657600080fd5b81019080803573ffffffffffffffffffffffffffffffffffffffff16906020019092919050505061028f565b005b61011c6102f9565b005b6101606004803603602081101561013457600080fd5b81019080803573ffffffffffffffffffffffffffffffffffffffff169060200190929190505050610304565b005b6101a46004803603602081101561017857600080fd5b81019080803573ffffffffffffffffffffffffffffffffffffffff16906020019092919050505061036e565b604051808215151515815260200191505060405180910390f35b610200600480360360208110156101d457600080fd5b81019080803573ffffffffffffffffffffffffffffffffffffffff16906020019092919050505061038b565b604051808215151515815260200191505060405180910390f35b6102233361036e565b610278576040517f08c379a00000000000000000000000000000000000000000000000000000000081526004018080602001828103825260408152602001806107ca6040913960400191505060405180910390fd5b610281816103a8565b50565b61028d33610402565b565b6102983361036e565b6102ed576040517f08c379a00000000000000000000000000000000000000000000000000000000081526004018080602001828103825260408152602001806107ca6040913960400191505060405180910390fd5b6102f681610402565b50565b6103023361045c565b565b61030d3361036e565b610362576040517f08c379a00000000000000000000000000000000000000000000000000000000081526004018080602001828103825260408152602001806107ca6040913960400191505060405180910390fd5b61036b816104b6565b50565b600061038482600061051090919063ffffffff16565b9050919050565b60006103a182600161051090919063ffffffff16565b9050919050565b6103bc8160016105ee90919063ffffffff16565b8073ffffffffffffffffffffffffffffffffffffffff167f55bd00b3e7d4e854215e58613765da860f485363fcdf5bd6bdbc97fe2b66847a60405160405180910390a250565b6104168160016106c990919063ffffffff16565b8073ffffffffffffffffffffffffffffffffffffffff167f2d5cebad2a7f0f074c4d2e6d56e39003468b1a87800ecce7ccc12827a47de0e660405160405180910390a250565b6104708160006106c990919063ffffffff16565b8073ffffffffffffffffffffffffffffffffffffffff167f0a8eb35e5ca14b3d6f28e4abf2f128dbab231a58b56e89beb5d636115001e16560405160405180910390a250565b6104ca8160006105ee90919063ffffffff16565b8073ffffffffffffffffffffffffffffffffffffffff167f22380c05984257a1cb900161c713dd71d39e74820f1aea43bd3f1bdd2096129960405160405180910390a250565b60008073ffffffffffffffffffffffffffffffffffffffff168273ffffffffffffffffffffffffffffffffffffffff161415610597576040517f08c379a00000000000000000000000000000000000000000000000000000000081526004018080602001828103825260228152602001806107a86022913960400191505060405180910390fd5b8260000160008373ffffffffffffffffffffffffffffffffffffffff1673ffffffffffffffffffffffffffffffffffffffff16815260200190815260200160002060009054906101000a900460ff16905092915050565b6105f88282610510565b1561066b576040517f08c379a000000000000000000000000000000000000000000000000000000000815260040180806020018281038252601f8152602001807f526f6c65733a206163636f756e7420616c72656164792068617320726f6c650081525060200191505060405180910390fd5b60018260000160008373ffffffffffffffffffffffffffffffffffffffff1673ffffffffffffffffffffffffffffffffffffffff16815260200190815260200160002060006101000a81548160ff0219169083151502179055505050565b6106d38282610510565b610728576040517f08c379a00000000000000000000000000000000000000000000000000000000081526004018080602001828103825260218152602001806107876021913960400191505060405180910390fd5b60008260000160008373ffffffffffffffffffffffffffffffffffffffff1673ffffffffffffffffffffffffffffffffffffffff16815260200190815260200160002060006101000a81548160ff021916908315150217905550505056fe526f6c65733a206163636f756e7420646f6573206e6f74206861766520726f6c65526f6c65733a206163636f756e7420697320746865207a65726f206164647265737357686974656c69737441646d696e526f6c653a2063616c6c657220646f6573206e6f742068617665207468652057686974656c69737441646d696e20726f6c65a265627a7a723158209d2a3d2e62c125320b126bb234c514af7c8d4ea502b5f344c747388ca4720f9e64736f6c634300050c0032526f6c65733a206163636f756e7420697320746865207a65726f2061646472657373",
  "source": "pragma solidity >=0.4.21 <0.6.0;\n\nimport \"./Roles.sol\";\nimport \"./WhitelistAdminBreeder.sol\";\n\n/**\n * @title WhitelistedRole\n * @dev Whitelisted accounts have been approved by a WhitelistAdmin to perform certain actions (e.g. participate in a\n * crowdsale). This role is special in that the only accounts that can add it are WhitelistAdmins (who can also remove\n * it), and not Whitelisteds themselves.\n */\ncontract WhitelistedBreeder is WhitelistAdminBreeder {\n    using Roles for Roles.Role;\n\n    event BreederAdded(address indexed account);\n    event BreederRemoved(address indexed account);\n\n    Roles.Role private _whitelisteds;\n\n    modifier onlyWhitelistedBreeder() {\n        require(isBreeder(msg.sender), \"WhitelistedBreeder: caller does not have the Whitelisted role\");\n        _;\n    }\n\n    function isBreeder(address account) public view returns (bool) {\n        return _whitelisteds.has(account);\n    }\n\n    function addBreeder(address account) public onlyWhitelistAdminBreeder {\n        _addBreeder(account);\n    }\n\n    function removeBreeder(address account) public onlyWhitelistAdminBreeder {\n        _removeBreeder(account);\n    }\n\n    function removeBreeder() public {\n        _removeBreeder(msg.sender);\n    }\n\n    function _addBreeder(address account) internal {\n        _whitelisteds.add(account);\n        emit BreederAdded(account);\n    }\n\n    function _removeBreeder(address account) internal {\n        _whitelisteds.remove(account);\n        emit BreederRemoved(account);\n    }\n}",
  "sourcePath": "C:\\Users\\Admin\\TD4_Ethereum\\WhitelistedBreeder.sol",
  "compiler": {
    "name": "solc",
    "version": "0.5.12+commit.7709ece9.Emscripten.clang"
  },
  "schemaVersion": "3.0.19",
  "updatedAt": "2019-12-04T09:39:35.335Z",
  "devdoc": {
    "details": "Whitelisted accounts have been approved by a WhitelistAdmin to perform certain actions (e.g. participate in a crowdsale). This role is special in that the only accounts that can add it are WhitelistAdmins (who can also remove it), and not Whitelisteds themselves.",
    "methods": {},
    "title": "WhitelistedRole"
  },
  "userdoc": {
    "methods": {}
  }
}